{
  "contractName": "Election",
  "abi": [
    {
      "inputs": [],
      "stateMutability": "nonpayable",
      "type": "constructor"
    },
    {
      "inputs": [],
      "name": "admin",
      "outputs": [
        {
          "internalType": "address",
          "name": "",
          "type": "address"
        }
      ],
      "stateMutability": "view",
      "type": "function",
      "constant": true
    },
    {
      "inputs": [
        {
          "internalType": "uint256",
          "name": "",
          "type": "uint256"
        }
      ],
      "name": "candidateDetails",
      "outputs": [
        {
          "internalType": "uint256",
          "name": "candidateId",
          "type": "uint256"
        },
        {
          "internalType": "string",
          "name": "header",
          "type": "string"
        },
        {
          "internalType": "string",
          "name": "slogan",
          "type": "string"
        },
        {
          "internalType": "uint256",
          "name": "voteCount",
          "type": "uint256"
        },
        {
          "internalType": "string",
          "name": "image",
          "type": "string"
        }
      ],
      "stateMutability": "view",
      "type": "function",
      "constant": true
    },
    {
      "inputs": [
        {
          "internalType": "address",
          "name": "",
          "type": "address"
        }
      ],
      "name": "voterDetails",
      "outputs": [
        {
          "internalType": "address",
          "name": "voterAddress",
          "type": "address"
        },
        {
          "internalType": "string",
          "name": "name",
          "type": "string"
        },
        {
          "internalType": "string",
          "name": "email",
          "type": "string"
        },
        {
          "internalType": "string",
          "name": "phone",
          "type": "string"
        },
        {
          "internalType": "bool",
          "name": "isVerified",
          "type": "bool"
        },
        {
          "internalType": "bool",
          "name": "hasVoted",
          "type": "bool"
        },
        {
          "internalType": "bool",
          "name": "isRegistered",
          "type": "bool"
        },
        {
          "internalType": "string",
          "name": "govId",
          "type": "string"
        },
        {
          "internalType": "string",
          "name": "currentImage",
          "type": "string"
        },
        {
          "internalType": "string",
          "name": "voterIdNumber",
          "type": "string"
        }
      ],
      "stateMutability": "view",
      "type": "function",
      "constant": true
    },
    {
      "inputs": [
        {
          "internalType": "uint256",
          "name": "",
          "type": "uint256"
        }
      ],
      "name": "voters",
      "outputs": [
        {
          "internalType": "address",
          "name": "",
          "type": "address"
        }
      ],
      "stateMutability": "view",
      "type": "function",
      "constant": true
    },
    {
      "inputs": [],
      "name": "getAdmin",
      "outputs": [
        {
          "internalType": "address",
          "name": "",
          "type": "address"
        }
      ],
      "stateMutability": "view",
      "type": "function",
      "constant": true
    },
    {
      "inputs": [
        {
          "internalType": "string",
          "name": "_header",
          "type": "string"
        },
        {
          "internalType": "string",
          "name": "_slogan",
          "type": "string"
        },
        {
          "internalType": "string",
          "name": "_image",
          "type": "string"
        }
      ],
      "name": "addCandidate",
      "outputs": [],
      "stateMutability": "nonpayable",
      "type": "function"
    },
    {
      "inputs": [
        {
          "internalType": "string",
          "name": "_adminName",
          "type": "string"
        },
        {
          "internalType": "string",
          "name": "_adminEmail",
          "type": "string"
        },
        {
          "internalType": "string",
          "name": "_adminTitle",
          "type": "string"
        },
        {
          "internalType": "string",
          "name": "_electionTitle",
          "type": "string"
        },
        {
          "internalType": "string",
          "name": "_organizationTitle",
          "type": "string"
        }
      ],
      "name": "setElectionDetails",
      "outputs": [],
      "stateMutability": "nonpayable",
      "type": "function"
    },
    {
      "inputs": [],
      "name": "getAllCandidates",
      "outputs": [
        {
          "components": [
            {
              "internalType": "uint256",
              "name": "candidateId",
              "type": "uint256"
            },
            {
              "internalType": "string",
              "name": "header",
              "type": "string"
            },
            {
              "internalType": "string",
              "name": "slogan",
              "type": "string"
            },
            {
              "internalType": "uint256",
              "name": "voteCount",
              "type": "uint256"
            },
            {
              "internalType": "string",
              "name": "image",
              "type": "string"
            }
          ],
          "internalType": "struct Election.Candidate[]",
          "name": "",
          "type": "tuple[]"
        }
      ],
      "stateMutability": "view",
      "type": "function",
      "constant": true
    },
    {
      "inputs": [],
      "name": "getAdminName",
      "outputs": [
        {
          "internalType": "string",
          "name": "",
          "type": "string"
        }
      ],
      "stateMutability": "view",
      "type": "function",
      "constant": true
    },
    {
      "inputs": [],
      "name": "getAdminAddress",
      "outputs": [
        {
          "internalType": "address",
          "name": "",
          "type": "address"
        }
      ],
      "stateMutability": "view",
      "type": "function",
      "constant": true
    },
    {
      "inputs": [],
      "name": "getAdminEmail",
      "outputs": [
        {
          "internalType": "string",
          "name": "",
          "type": "string"
        }
      ],
      "stateMutability": "view",
      "type": "function",
      "constant": true
    },
    {
      "inputs": [],
      "name": "getAdminTitle",
      "outputs": [
        {
          "internalType": "string",
          "name": "",
          "type": "string"
        }
      ],
      "stateMutability": "view",
      "type": "function",
      "constant": true
    },
    {
      "inputs": [],
      "name": "getElectionTitle",
      "outputs": [
        {
          "internalType": "string",
          "name": "",
          "type": "string"
        }
      ],
      "stateMutability": "view",
      "type": "function",
      "constant": true
    },
    {
      "inputs": [],
      "name": "getOrganizationTitle",
      "outputs": [
        {
          "internalType": "string",
          "name": "",
          "type": "string"
        }
      ],
      "stateMutability": "view",
      "type": "function",
      "constant": true
    },
    {
      "inputs": [],
      "name": "getTotalCandidate",
      "outputs": [
        {
          "internalType": "uint256",
          "name": "",
          "type": "uint256"
        }
      ],
      "stateMutability": "view",
      "type": "function",
      "constant": true
    },
    {
      "inputs": [],
      "name": "getTotalVoter",
      "outputs": [
        {
          "internalType": "uint256",
          "name": "",
          "type": "uint256"
        }
      ],
      "stateMutability": "view",
      "type": "function",
      "constant": true
    },
    {
      "inputs": [
        {
          "internalType": "string",
          "name": "_name",
          "type": "string"
        },
        {
          "internalType": "string",
          "name": "_email",
          "type": "string"
        },
        {
          "internalType": "string",
          "name": "_phone",
          "type": "string"
        },
        {
          "internalType": "string",
          "name": "_govId",
          "type": "string"
        },
        {
          "internalType": "string",
          "name": "_currentImage",
          "type": "string"
        },
        {
          "internalType": "string",
          "name": "_voterIdNumber",
          "type": "string"
        },
        {
          "internalType": "bool",
          "name": "_isVerified",
          "type": "bool"
        }
      ],
      "name": "registerAsVoter",
      "outputs": [],
      "stateMutability": "nonpayable",
      "type": "function"
    },
    {
      "inputs": [
        {
          "internalType": "bool",
          "name": "_verifedStatus",
          "type": "bool"
        },
        {
          "internalType": "address",
          "name": "voterAddress",
          "type": "address"
        }
      ],
      "name": "verifyVoter",
      "outputs": [],
      "stateMutability": "nonpayable",
      "type": "function"
    },
    {
      "inputs": [
        {
          "internalType": "address",
          "name": "voterAddress",
          "type": "address"
        }
      ],
      "name": "rejectVoter",
      "outputs": [],
      "stateMutability": "nonpayable",
      "type": "function"
    },
    {
      "inputs": [
        {
          "internalType": "uint256",
          "name": "candidateId",
          "type": "uint256"
        }
      ],
      "name": "vote",
      "outputs": [],
      "stateMutability": "nonpayable",
      "type": "function"
    },
    {
      "inputs": [],
      "name": "endElection",
      "outputs": [],
      "stateMutability": "nonpayable",
      "type": "function"
    },
    {
      "inputs": [
        {
          "internalType": "address",
          "name": "voterAddress",
          "type": "address"
        }
      ],
      "name": "getVoterDetails",
      "outputs": [
        {
          "components": [
            {
              "internalType": "address",
              "name": "voterAddress",
              "type": "address"
            },
            {
              "internalType": "string",
              "name": "name",
              "type": "string"
            },
            {
              "internalType": "string",
              "name": "email",
              "type": "string"
            },
            {
              "internalType": "string",
              "name": "phone",
              "type": "string"
            },
            {
              "internalType": "bool",
              "name": "isVerified",
              "type": "bool"
            },
            {
              "internalType": "bool",
              "name": "hasVoted",
              "type": "bool"
            },
            {
              "internalType": "bool",
              "name": "isRegistered",
              "type": "bool"
            },
            {
              "internalType": "string",
              "name": "govId",
              "type": "string"
            },
            {
              "internalType": "string",
              "name": "currentImage",
              "type": "string"
            },
            {
              "internalType": "string",
              "name": "voterIdNumber",
              "type": "string"
            }
          ],
          "internalType": "struct Election.Voter",
          "name": "",
          "type": "tuple"
        }
      ],
      "stateMutability": "view",
      "type": "function",
      "constant": true
    },
    {
      "inputs": [],
      "name": "getAllVoters",
      "outputs": [
        {
          "components": [
            {
              "internalType": "address",
              "name": "voterAddress",
              "type": "address"
            },
            {
              "internalType": "string",
              "name": "name",
              "type": "string"
            },
            {
              "internalType": "string",
              "name": "email",
              "type": "string"
            },
            {
              "internalType": "string",
              "name": "phone",
              "type": "string"
            },
            {
              "internalType": "bool",
              "name": "isVerified",
              "type": "bool"
            },
            {
              "internalType": "bool",
              "name": "hasVoted",
              "type": "bool"
            },
            {
              "internalType": "bool",
              "name": "isRegistered",
              "type": "bool"
            },
            {
              "internalType": "string",
              "name": "govId",
              "type": "string"
            },
            {
              "internalType": "string",
              "name": "currentImage",
              "type": "string"
            },
            {
              "internalType": "string",
              "name": "voterIdNumber",
              "type": "string"
            }
          ],
          "internalType": "struct Election.Voter[]",
          "name": "",
          "type": "tuple[]"
        }
      ],
      "stateMutability": "view",
      "type": "function",
      "constant": true
    },
    {
      "inputs": [],
      "name": "getStart",
      "outputs": [
        {
          "internalType": "bool",
          "name": "",
          "type": "bool"
        }
      ],
      "stateMutability": "view",
      "type": "function",
      "constant": true
    },
    {
      "inputs": [],
      "name": "getEnd",
      "outputs": [
        {
          "internalType": "bool",
          "name": "",
          "type": "bool"
        }
      ],
      "stateMutability": "view",
      "type": "function",
      "constant": true
    },
    {
      "inputs": [],
      "name": "getWinner",
      "outputs": [
        {
          "components": [
            {
              "internalType": "uint256",
              "name": "candidateId",
              "type": "uint256"
            },
            {
              "internalType": "string",
              "name": "header",
              "type": "string"
            },
            {
              "internalType": "string",
              "name": "slogan",
              "type": "string"
            },
            {
              "internalType": "uint256",
              "name": "voteCount",
              "type": "uint256"
            },
            {
              "internalType": "string",
              "name": "image",
              "type": "string"
            }
          ],
          "internalType": "struct Election.Candidate",
          "name": "",
          "type": "tuple"
        }
      ],
      "stateMutability": "view",
      "type": "function",
      "constant": true
    }
  ],
  "bytecode": "0x608060405234801561001057600080fd5b50336000806101000a81548173ffffffffffffffffffffffffffffffffffffffff021916908373ffffffffffffffffffffffffffffffffffffffff160217905550600060018190555060006002819055506000600360006101000a81548160ff0219169083151502179055506000600360016101000a81548160ff021916908315150217905550613c7b806100a66000396000f3fe608060405234801561001057600080fd5b506004361061018e5760003560e01c806364d198a1116100de578063b2e6b91211610097578063c5292c6711610071578063c5292c671461044a578063da58c7d914610468578063e173730c14610498578063f851a440146104b65761018e565b8063b2e6b912146103de578063ba71bef0146103fc578063be081b6f1461042c5761018e565b806364d198a11461032c5780636e9960c31461034a578063831318f1146103685780638e7ea5b2146103865780639f05a36d146103a4578063ad71f8dc146103c25761018e565b806335bbe70e1161014b578063506b8e0a11610125578063506b8e0a146102995780635938750d146102b557806359f78468146102ee5780636247e532146102f85761018e565b806335bbe70e14610241578063483431751461025f5780634ca098271461027d5761018e565b80630121b93f146101935780630b93400e146101af5780630e2354cf146101cd5780631b04772b146101eb578063253e74e2146102075780632e6997fe14610223575b600080fd5b6101ad60048036038101906101a89190612aea565b6104d4565b005b6101b7610660565b6040516101c49190612b26565b60405180910390f35b6101d561066a565b6040516101e29190612bd1565b60405180910390f35b61020560048036038101906102009190612c51565b6106ff565b005b610221600480360381019061021c9190612db3565b610a61565b005b61022b610b90565b6040516102389190613059565b60405180910390f35b610249610e1a565b6040516102569190613264565b60405180910390f35b610267611358565b6040516102749190612bd1565b60405180910390f35b610297600480360381019061029291906132b2565b6113ed565b005b6102b360048036038101906102ae91906133fc565b61164c565b005b6102cf60048036038101906102ca9190612c51565b611702565b6040516102e59a9998979695949392919061345a565b60405180910390f35b6102f6611acd565b005b610312600480360381019061030d9190612aea565b611b5d565b604051610323959493929190613520565b60405180910390f35b610334611d2b565b6040516103419190612b26565b60405180910390f35b610352611d35565b60405161035f9190613588565b60405180910390f35b610370611d5e565b60405161037d9190612bd1565b60405180910390f35b61038e611df3565b60405161039b9190613627565b60405180910390f35b6103ac612240565b6040516103b99190613649565b60405180910390f35b6103dc60048036038101906103d79190613664565b612257565b005b6103e661236b565b6040516103f39190613588565b60405180910390f35b61041660048036038101906104119190612c51565b612394565b6040516104239190613808565b60405180910390f35b610434612801565b6040516104419190612bd1565b60405180910390f35b610452612896565b60405161045f9190613649565b60405180910390f35b610482600480360381019061047d9190612aea565b6128ad565b60405161048f9190613588565b60405180910390f35b6104a06128ec565b6040516104ad9190612bd1565b60405180910390f35b6104be612981565b6040516104cb9190613588565b60405180910390f35b60001515600b60003373ffffffffffffffffffffffffffffffffffffffff1673ffffffffffffffffffffffffffffffffffffffff16815260200190815260200160002060040160019054906101000a900460ff1615151461053457600080fd5b60011515600b60003373ffffffffffffffffffffffffffffffffffffffff1673ffffffffffffffffffffffffffffffffffffffff16815260200190815260200160002060040160009054906101000a900460ff1615151461059457600080fd5b60011515600360009054906101000a900460ff161515146105b457600080fd5b60001515600360019054906101000a900460ff161515146105d457600080fd5b60016004600083815260200190815260200160002060030160008282546105fb9190613859565b925050819055506001600b60003373ffffffffffffffffffffffffffffffffffffffff1673ffffffffffffffffffffffffffffffffffffffff16815260200190815260200160002060040160016101000a81548160ff02191690831515021790555050565b6000600254905090565b60606005600001805461067c906138bc565b80601f01602080910402602001604051908101604052809291908181526020018280546106a8906138bc565b80156106f55780601f106106ca576101008083540402835291602001916106f5565b820191906000526020600020905b8154815290600101906020018083116106d857829003601f168201915b5050505050905090565b60008054906101000a900473ffffffffffffffffffffffffffffffffffffffff1673ffffffffffffffffffffffffffffffffffffffff163373ffffffffffffffffffffffffffffffffffffffff161461075757600080fd5b60005b600a805490508110156108e3578173ffffffffffffffffffffffffffffffffffffffff16600a8281548110610792576107916138ed565b5b9060005260206000200160009054906101000a900473ffffffffffffffffffffffffffffffffffffffff1673ffffffffffffffffffffffffffffffffffffffff16036108d057600a6001600a805490506107ec919061391c565b815481106107fd576107fc6138ed565b5b9060005260206000200160009054906101000a900473ffffffffffffffffffffffffffffffffffffffff16600a828154811061083c5761083b6138ed565b5b9060005260206000200160006101000a81548173ffffffffffffffffffffffffffffffffffffffff021916908373ffffffffffffffffffffffffffffffffffffffff160217905550600a80548061089657610895613950565b5b6001900381819060005260206000200160006101000a81549073ffffffffffffffffffffffffffffffffffffffff021916905590556108e3565b80806108db9061397f565b91505061075a565b506000600b60008373ffffffffffffffffffffffffffffffffffffffff1673ffffffffffffffffffffffffffffffffffffffff16815260200190815260200160002060040160026101000a81548160ff021916908315150217905550600160026000828254610952919061391c565b92505081905550600b60008273ffffffffffffffffffffffffffffffffffffffff1673ffffffffffffffffffffffffffffffffffffffff168152602001908152602001600020600080820160006101000a81549073ffffffffffffffffffffffffffffffffffffffff02191690556001820160006109d091906129a5565b6002820160006109e091906129a5565b6003820160006109f091906129a5565b6004820160006101000a81549060ff02191690556004820160016101000a81549060ff02191690556004820160026101000a81549060ff0219169055600582016000610a3c91906129a5565b600682016000610a4c91906129a5565b600782016000610a5c91906129a5565b505050565b60008054906101000a900473ffffffffffffffffffffffffffffffffffffffff1673ffffffffffffffffffffffffffffffffffffffff163373ffffffffffffffffffffffffffffffffffffffff1614610ab957600080fd5b6040518060a001604052808681526020018581526020018481526020018381526020018281525060056000820151816000019081610af79190613b73565b506020820151816001019081610b0d9190613b73565b506040820151816002019081610b239190613b73565b506060820151816003019081610b399190613b73565b506080820151816004019081610b4f9190613b73565b509050506001600360006101000a81548160ff0219169083151502179055506000600360016101000a81548160ff0219169083151502179055505050505050565b6060600060015467ffffffffffffffff811115610bb057610baf612c88565b5b604051908082528060200260200182016040528015610be957816020015b610bd66129e5565b815260200190600190039081610bce5790505b50905060005b600154811015610e1257600460008281526020019081526020016000206040518060a001604052908160008201548152602001600182018054610c31906138bc565b80601f0160208091040260200160405190810160405280929190818152602001828054610c5d906138bc565b8015610caa5780601f10610c7f57610100808354040283529160200191610caa565b820191906000526020600020905b815481529060010190602001808311610c8d57829003601f168201915b50505050508152602001600282018054610cc3906138bc565b80601f0160208091040260200160405190810160405280929190818152602001828054610cef906138bc565b8015610d3c5780601f10610d1157610100808354040283529160200191610d3c565b820191906000526020600020905b815481529060010190602001808311610d1f57829003601f168201915b5050505050815260200160038201548152602001600482018054610d5f906138bc565b80601f0160208091040260200160405190810160405280929190818152602001828054610d8b906138bc565b8015610dd85780601f10610dad57610100808354040283529160200191610dd8565b820191906000526020600020905b815481529060010190602001808311610dbb57829003601f168201915b505050505081525050828281518110610df457610df36138ed565b5b60200260200101819052508080610e0a9061397f565b915050610bef565b508091505090565b6060600060025467ffffffffffffffff811115610e3a57610e39612c88565b5b604051908082528060200260200182016040528015610e7357816020015b610e60612a14565b815260200190600190039081610e585790505b50905060005b60025481101561135057600b6000600a8381548110610e9b57610e9a6138ed565b5b9060005260206000200160009054906101000a900473ffffffffffffffffffffffffffffffffffffffff1673ffffffffffffffffffffffffffffffffffffffff1673ffffffffffffffffffffffffffffffffffffffff168152602001908152602001600020604051806101400160405290816000820160009054906101000a900473ffffffffffffffffffffffffffffffffffffffff1673ffffffffffffffffffffffffffffffffffffffff1673ffffffffffffffffffffffffffffffffffffffff168152602001600182018054610f72906138bc565b80601f0160208091040260200160405190810160405280929190818152602001828054610f9e906138bc565b8015610feb5780601f10610fc057610100808354040283529160200191610feb565b820191906000526020600020905b815481529060010190602001808311610fce57829003601f168201915b50505050508152602001600282018054611004906138bc565b80601f0160208091040260200160405190810160405280929190818152602001828054611030906138bc565b801561107d5780601f106110525761010080835404028352916020019161107d565b820191906000526020600020905b81548152906001019060200180831161106057829003601f168201915b50505050508152602001600382018054611096906138bc565b80601f01602080910402602001604051908101604052809291908181526020018280546110c2906138bc565b801561110f5780601f106110e45761010080835404028352916020019161110f565b820191906000526020600020905b8154815290600101906020018083116110f257829003601f168201915b505050505081526020016004820160009054906101000a900460ff161515151581526020016004820160019054906101000a900460ff161515151581526020016004820160029054906101000a900460ff16151515158152602001600582018054611179906138bc565b80601f01602080910402602001604051908101604052809291908181526020018280546111a5906138bc565b80156111f25780601f106111c7576101008083540402835291602001916111f2565b820191906000526020600020905b8154815290600101906020018083116111d557829003601f168201915b5050505050815260200160068201805461120b906138bc565b80601f0160208091040260200160405190810160405280929190818152602001828054611237906138bc565b80156112845780601f1061125957610100808354040283529160200191611284565b820191906000526020600020905b81548152906001019060200180831161126757829003601f168201915b5050505050815260200160078201805461129d906138bc565b80601f01602080910402602001604051908101604052809291908181526020018280546112c9906138bc565b80156113165780601f106112eb57610100808354040283529160200191611316565b820191906000526020600020905b8154815290600101906020018083116112f957829003601f168201915b505050505081525050828281518110611332576113316138ed565b5b602002602001018190525080806113489061397f565b915050610e79565b508091505090565b60606005600401805461136a906138bc565b80601f0160208091040260200160405190810160405280929190818152602001828054611396906138bc565b80156113e35780601f106113b8576101008083540402835291602001916113e3565b820191906000526020600020905b8154815290600101906020018083116113c657829003601f168201915b5050505050905090565b60006040518061014001604052803373ffffffffffffffffffffffffffffffffffffffff168152602001898152602001888152602001878152602001831515815260200160001515815260200160011515815260200186815260200185815260200184815250905080600b60003373ffffffffffffffffffffffffffffffffffffffff1673ffffffffffffffffffffffffffffffffffffffff16815260200190815260200160002060008201518160000160006101000a81548173ffffffffffffffffffffffffffffffffffffffff021916908373ffffffffffffffffffffffffffffffffffffffff16021790555060208201518160010190816114f19190613b73565b5060408201518160020190816115079190613b73565b50606082015181600301908161151d9190613b73565b5060808201518160040160006101000a81548160ff02191690831515021790555060a08201518160040160016101000a81548160ff02191690831515021790555060c08201518160040160026101000a81548160ff02191690831515021790555060e08201518160050190816115939190613b73565b506101008201518160060190816115aa9190613b73565b506101208201518160070190816115c19190613b73565b50905050600a339080600181540180825580915050600190039060005260206000200160009091909190916101000a81548173ffffffffffffffffffffffffffffffffffffffff021916908373ffffffffffffffffffffffffffffffffffffffff16021790555060016002600082825461163b9190613859565b925050819055505050505050505050565b60008054906101000a900473ffffffffffffffffffffffffffffffffffffffff1673ffffffffffffffffffffffffffffffffffffffff163373ffffffffffffffffffffffffffffffffffffffff16146116a457600080fd5b81600b60008373ffffffffffffffffffffffffffffffffffffffff1673ffffffffffffffffffffffffffffffffffffffff16815260200190815260200160002060040160006101000a81548160ff0219169083151502179055505050565b600b6020528060005260406000206000915090508060000160009054906101000a900473ffffffffffffffffffffffffffffffffffffffff169080600101805461174b906138bc565b80601f0160208091040260200160405190810160405280929190818152602001828054611777906138bc565b80156117c45780601f10611799576101008083540402835291602001916117c4565b820191906000526020600020905b8154815290600101906020018083116117a757829003601f168201915b5050505050908060020180546117d9906138bc565b80601f0160208091040260200160405190810160405280929190818152602001828054611805906138bc565b80156118525780601f1061182757610100808354040283529160200191611852565b820191906000526020600020905b81548152906001019060200180831161183557829003601f168201915b505050505090806003018054611867906138bc565b80601f0160208091040260200160405190810160405280929190818152602001828054611893906138bc565b80156118e05780601f106118b5576101008083540402835291602001916118e0565b820191906000526020600020905b8154815290600101906020018083116118c357829003601f168201915b5050505050908060040160009054906101000a900460ff16908060040160019054906101000a900460ff16908060040160029054906101000a900460ff169080600501805461192e906138bc565b80601f016020809104026020016040519081016040528092919081815260200182805461195a906138bc565b80156119a75780601f1061197c576101008083540402835291602001916119a7565b820191906000526020600020905b81548152906001019060200180831161198a57829003601f168201915b5050505050908060060180546119bc906138bc565b80601f01602080910402602001604051908101604052809291908181526020018280546119e8906138bc565b8015611a355780601f10611a0a57610100808354040283529160200191611a35565b820191906000526020600020905b815481529060010190602001808311611a1857829003601f168201915b505050505090806007018054611a4a906138bc565b80601f0160208091040260200160405190810160405280929190818152602001828054611a76906138bc565b8015611ac35780601f10611a9857610100808354040283529160200191611ac3565b820191906000526020600020905b815481529060010190602001808311611aa657829003601f168201915b505050505090508a565b60008054906101000a900473ffffffffffffffffffffffffffffffffffffffff1673ffffffffffffffffffffffffffffffffffffffff163373ffffffffffffffffffffffffffffffffffffffff1614611b2557600080fd5b6001600360016101000a81548160ff0219169083151502179055506000600360006101000a81548160ff021916908315150217905550565b6004602052806000526040600020600091509050806000015490806001018054611b86906138bc565b80601f0160208091040260200160405190810160405280929190818152602001828054611bb2906138bc565b8015611bff5780601f10611bd457610100808354040283529160200191611bff565b820191906000526020600020905b815481529060010190602001808311611be257829003601f168201915b505050505090806002018054611c14906138bc565b80601f0160208091040260200160405190810160405280929190818152602001828054611c40906138bc565b8015611c8d5780601f10611c6257610100808354040283529160200191611c8d565b820191906000526020600020905b815481529060010190602001808311611c7057829003601f168201915b505050505090806003015490806004018054611ca8906138bc565b80601f0160208091040260200160405190810160405280929190818152602001828054611cd4906138bc565b8015611d215780601f10611cf657610100808354040283529160200191611d21565b820191906000526020600020905b815481529060010190602001808311611d0457829003601f168201915b5050505050905085565b6000600154905090565b60008060009054906101000a900473ffffffffffffffffffffffffffffffffffffffff16905090565b606060056001018054611d70906138bc565b80601f0160208091040260200160405190810160405280929190818152602001828054611d9c906138bc565b8015611de95780601f10611dbe57610100808354040283529160200191611de9565b820191906000526020600020905b815481529060010190602001808311611dcc57829003601f168201915b5050505050905090565b611dfb6129e5565b60011515600360019054906101000a900460ff16151514611e1b57600080fd5b6000600460008081526020019081526020016000206040518060a001604052908160008201548152602001600182018054611e55906138bc565b80601f0160208091040260200160405190810160405280929190818152602001828054611e81906138bc565b8015611ece5780601f10611ea357610100808354040283529160200191611ece565b820191906000526020600020905b815481529060010190602001808311611eb157829003601f168201915b50505050508152602001600282018054611ee7906138bc565b80601f0160208091040260200160405190810160405280929190818152602001828054611f13906138bc565b8015611f605780601f10611f3557610100808354040283529160200191611f60565b820191906000526020600020905b815481529060010190602001808311611f4357829003601f168201915b5050505050815260200160038201548152602001600482018054611f83906138bc565b80601f0160208091040260200160405190810160405280929190818152602001828054611faf906138bc565b8015611ffc5780601f10611fd157610100808354040283529160200191611ffc565b820191906000526020600020905b815481529060010190602001808311611fdf57829003601f168201915b50505050508152505090506000600190505b6001548110156122385781606001516004600083815260200190815260200160002060030154111561222557600460008281526020019081526020016000206040518060a001604052908160008201548152602001600182018054612072906138bc565b80601f016020809104026020016040519081016040528092919081815260200182805461209e906138bc565b80156120eb5780601f106120c0576101008083540402835291602001916120eb565b820191906000526020600020905b8154815290600101906020018083116120ce57829003601f168201915b50505050508152602001600282018054612104906138bc565b80601f0160208091040260200160405190810160405280929190818152602001828054612130906138bc565b801561217d5780601f106121525761010080835404028352916020019161217d565b820191906000526020600020905b81548152906001019060200180831161216057829003601f168201915b50505050508152602001600382015481526020016004820180546121a0906138bc565b80601f01602080910402602001604051908101604052809291908181526020018280546121cc906138bc565b80156122195780601f106121ee57610100808354040283529160200191612219565b820191906000526020600020905b8154815290600101906020018083116121fc57829003601f168201915b50505050508152505091505b80806122309061397f565b91505061200e565b508091505090565b6000600360019054906101000a900460ff16905090565b60008054906101000a900473ffffffffffffffffffffffffffffffffffffffff1673ffffffffffffffffffffffffffffffffffffffff163373ffffffffffffffffffffffffffffffffffffffff16146122af57600080fd5b60006040518060a00160405280600154815260200185815260200184815260200160008152602001838152509050806004600060015481526020019081526020016000206000820151816000015560208201518160010190816123129190613b73565b5060408201518160020190816123289190613b73565b506060820151816003015560808201518160040190816123489190613b73565b50905050600180600082825461235e9190613859565b9250508190555050505050565b60008060009054906101000a900473ffffffffffffffffffffffffffffffffffffffff16905090565b61239c612a14565b600b60008373ffffffffffffffffffffffffffffffffffffffff1673ffffffffffffffffffffffffffffffffffffffff168152602001908152602001600020604051806101400160405290816000820160009054906101000a900473ffffffffffffffffffffffffffffffffffffffff1673ffffffffffffffffffffffffffffffffffffffff1673ffffffffffffffffffffffffffffffffffffffff16815260200160018201805461244d906138bc565b80601f0160208091040260200160405190810160405280929190818152602001828054612479906138bc565b80156124c65780601f1061249b576101008083540402835291602001916124c6565b820191906000526020600020905b8154815290600101906020018083116124a957829003601f168201915b505050505081526020016002820180546124df906138bc565b80601f016020809104026020016040519081016040528092919081815260200182805461250b906138bc565b80156125585780601f1061252d57610100808354040283529160200191612558565b820191906000526020600020905b81548152906001019060200180831161253b57829003601f168201915b50505050508152602001600382018054612571906138bc565b80601f016020809104026020016040519081016040528092919081815260200182805461259d906138bc565b80156125ea5780601f106125bf576101008083540402835291602001916125ea565b820191906000526020600020905b8154815290600101906020018083116125cd57829003601f168201915b505050505081526020016004820160009054906101000a900460ff161515151581526020016004820160019054906101000a900460ff161515151581526020016004820160029054906101000a900460ff16151515158152602001600582018054612654906138bc565b80601f0160208091040260200160405190810160405280929190818152602001828054612680906138bc565b80156126cd5780601f106126a2576101008083540402835291602001916126cd565b820191906000526020600020905b8154815290600101906020018083116126b057829003601f168201915b505050505081526020016006820180546126e6906138bc565b80601f0160208091040260200160405190810160405280929190818152602001828054612712906138bc565b801561275f5780601f106127345761010080835404028352916020019161275f565b820191906000526020600020905b81548152906001019060200180831161274257829003601f168201915b50505050508152602001600782018054612778906138bc565b80601f01602080910402602001604051908101604052809291908181526020018280546127a4906138bc565b80156127f15780601f106127c6576101008083540402835291602001916127f1565b820191906000526020600020905b8154815290600101906020018083116127d457829003601f168201915b5050505050815250509050919050565b606060056002018054612813906138bc565b80601f016020809104026020016040519081016040528092919081815260200182805461283f906138bc565b801561288c5780601f106128615761010080835404028352916020019161288c565b820191906000526020600020905b81548152906001019060200180831161286f57829003601f168201915b5050505050905090565b6000600360009054906101000a900460ff16905090565b600a81815481106128bd57600080fd5b906000526020600020016000915054906101000a900473ffffffffffffffffffffffffffffffffffffffff1681565b6060600560030180546128fe906138bc565b80601f016020809104026020016040519081016040528092919081815260200182805461292a906138bc565b80156129775780601f1061294c57610100808354040283529160200191612977565b820191906000526020600020905b81548152906001019060200180831161295a57829003601f168201915b5050505050905090565b60008054906101000a900473ffffffffffffffffffffffffffffffffffffffff1681565b5080546129b1906138bc565b6000825580601f106129c357506129e2565b601f0160209004906000526020600020908101906129e19190612a83565b5b50565b6040518060a0016040528060008152602001606081526020016060815260200160008152602001606081525090565b604051806101400160405280600073ffffffffffffffffffffffffffffffffffffffff1681526020016060815260200160608152602001606081526020016000151581526020016000151581526020016000151581526020016060815260200160608152602001606081525090565b5b80821115612a9c576000816000905550600101612a84565b5090565b6000604051905090565b600080fd5b600080fd5b6000819050919050565b612ac781612ab4565b8114612ad257600080fd5b50565b600081359050612ae481612abe565b92915050565b600060208284031215612b0057612aff612aaa565b5b6000612b0e84828501612ad5565b91505092915050565b612b2081612ab4565b82525050565b6000602082019050612b3b6000830184612b17565b92915050565b600081519050919050565b600082825260208201905092915050565b60005b83811015612b7b578082015181840152602081019050612b60565b60008484015250505050565b6000601f19601f8301169050919050565b6000612ba382612b41565b612bad8185612b4c565b9350612bbd818560208601612b5d565b612bc681612b87565b840191505092915050565b60006020820190508181036000830152612beb8184612b98565b905092915050565b600073ffffffffffffffffffffffffffffffffffffffff82169050919050565b6000612c1e82612bf3565b9050919050565b612c2e81612c13565b8114612c3957600080fd5b50565b600081359050612c4b81612c25565b92915050565b600060208284031215612c6757612c66612aaa565b5b6000612c7584828501612c3c565b91505092915050565b600080fd5b600080fd5b7f4e487b7100000000000000000000000000000000000000000000000000000000600052604160045260246000fd5b612cc082612b87565b810181811067ffffffffffffffff82111715612cdf57612cde612c88565b5b80604052505050565b6000612cf2612aa0565b9050612cfe8282612cb7565b919050565b600067ffffffffffffffff821115612d1e57612d1d612c88565b5b612d2782612b87565b9050602081019050919050565b82818337600083830152505050565b6000612d56612d5184612d03565b612ce8565b905082815260208101848484011115612d7257612d71612c83565b5b612d7d848285612d34565b509392505050565b600082601f830112612d9a57612d99612c7e565b5b8135612daa848260208601612d43565b91505092915050565b600080600080600060a08688031215612dcf57612dce612aaa565b5b600086013567ffffffffffffffff811115612ded57612dec612aaf565b5b612df988828901612d85565b955050602086013567ffffffffffffffff811115612e1a57612e19612aaf565b5b612e2688828901612d85565b945050604086013567ffffffffffffffff811115612e4757612e46612aaf565b5b612e5388828901612d85565b935050606086013567ffffffffffffffff811115612e7457612e73612aaf565b5b612e8088828901612d85565b925050608086013567ffffffffffffffff811115612ea157612ea0612aaf565b5b612ead88828901612d85565b9150509295509295909350565b600081519050919050565b600082825260208201905092915050565b6000819050602082019050919050565b612eef81612ab4565b82525050565b600082825260208201905092915050565b6000612f1182612b41565b612f1b8185612ef5565b9350612f2b818560208601612b5d565b612f3481612b87565b840191505092915050565b600060a083016000830151612f576000860182612ee6565b5060208301518482036020860152612f6f8282612f06565b91505060408301518482036040860152612f898282612f06565b9150506060830151612f9e6060860182612ee6565b5060808301518482036080860152612fb68282612f06565b9150508091505092915050565b6000612fcf8383612f3f565b905092915050565b6000602082019050919050565b6000612fef82612eba565b612ff98185612ec5565b93508360208202850161300b85612ed6565b8060005b8581101561304757848403895281516130288582612fc3565b945061303383612fd7565b925060208a0199505060018101905061300f565b50829750879550505050505092915050565b600060208201905081810360008301526130738184612fe4565b905092915050565b600081519050919050565b600082825260208201905092915050565b6000819050602082019050919050565b6130b081612c13565b82525050565b60008115159050919050565b6130cb816130b6565b82525050565b6000610140830160008301516130ea60008601826130a7565b50602083015184820360208601526131028282612f06565b9150506040830151848203604086015261311c8282612f06565b915050606083015184820360608601526131368282612f06565b915050608083015161314b60808601826130c2565b5060a083015161315e60a08601826130c2565b5060c083015161317160c08601826130c2565b5060e083015184820360e08601526131898282612f06565b9150506101008301518482036101008601526131a58282612f06565b9150506101208301518482036101208601526131c18282612f06565b9150508091505092915050565b60006131da83836130d1565b905092915050565b6000602082019050919050565b60006131fa8261307b565b6132048185613086565b93508360208202850161321685613097565b8060005b85811015613252578484038952815161323385826131ce565b945061323e836131e2565b925060208a0199505060018101905061321a565b50829750879550505050505092915050565b6000602082019050818103600083015261327e81846131ef565b905092915050565b61328f816130b6565b811461329a57600080fd5b50565b6000813590506132ac81613286565b92915050565b600080600080600080600060e0888a0312156132d1576132d0612aaa565b5b600088013567ffffffffffffffff8111156132ef576132ee612aaf565b5b6132fb8a828b01612d85565b975050602088013567ffffffffffffffff81111561331c5761331b612aaf565b5b6133288a828b01612d85565b965050604088013567ffffffffffffffff81111561334957613348612aaf565b5b6133558a828b01612d85565b955050606088013567ffffffffffffffff81111561337657613375612aaf565b5b6133828a828b01612d85565b945050608088013567ffffffffffffffff8111156133a3576133a2612aaf565b5b6133af8a828b01612d85565b93505060a088013567ffffffffffffffff8111156133d0576133cf612aaf565b5b6133dc8a828b01612d85565b92505060c06133ed8a828b0161329d565b91505092959891949750929550565b6000806040838503121561341357613412612aaa565b5b60006134218582860161329d565b925050602061343285828601612c3c565b9150509250929050565b61344581612c13565b82525050565b613454816130b6565b82525050565b600061014082019050613470600083018d61343c565b8181036020830152613482818c612b98565b90508181036040830152613496818b612b98565b905081810360608301526134aa818a612b98565b90506134b9608083018961344b565b6134c660a083018861344b565b6134d360c083018761344b565b81810360e08301526134e58186612b98565b90508181036101008301526134fa8185612b98565b905081810361012083015261350f8184612b98565b90509b9a5050505050505050505050565b600060a0820190506135356000830188612b17565b81810360208301526135478187612b98565b9050818103604083015261355b8186612b98565b905061356a6060830185612b17565b818103608083015261357c8184612b98565b90509695505050505050565b600060208201905061359d600083018461343c565b92915050565b600060a0830160008301516135bb6000860182612ee6565b50602083015184820360208601526135d38282612f06565b915050604083015184820360408601526135ed8282612f06565b91505060608301516136026060860182612ee6565b506080830151848203608086015261361a8282612f06565b9150508091505092915050565b6000602082019050818103600083015261364181846135a3565b905092915050565b600060208201905061365e600083018461344b565b92915050565b60008060006060848603121561367d5761367c612aaa565b5b600084013567ffffffffffffffff81111561369b5761369a612aaf565b5b6136a786828701612d85565b935050602084013567ffffffffffffffff8111156136c8576136c7612aaf565b5b6136d486828701612d85565b925050604084013567ffffffffffffffff8111156136f5576136f4612aaf565b5b61370186828701612d85565b9150509250925092565b60006101408301600083015161372460008601826130a7565b506020830151848203602086015261373c8282612f06565b915050604083015184820360408601526137568282612f06565b915050606083015184820360608601526137708282612f06565b915050608083015161378560808601826130c2565b5060a083015161379860a08601826130c2565b5060c08301516137ab60c08601826130c2565b5060e083015184820360e08601526137c38282612f06565b9150506101008301518482036101008601526137df8282612f06565b9150506101208301518482036101208601526137fb8282612f06565b9150508091505092915050565b60006020820190508181036000830152613822818461370b565b905092915050565b7f4e487b7100000000000000000000000000000000000000000000000000000000600052601160045260246000fd5b600061386482612ab4565b915061386f83612ab4565b92508282019050808211156138875761388661382a565b5b92915050565b7f4e487b7100000000000000000000000000000000000000000000000000000000600052602260045260246000fd5b600060028204905060018216806138d457607f821691505b6020821081036138e7576138e661388d565b5b50919050565b7f4e487b7100000000000000000000000000000000000000000000000000000000600052603260045260246000fd5b600061392782612ab4565b915061393283612ab4565b925082820390508181111561394a5761394961382a565b5b92915050565b7f4e487b7100000000000000000000000000000000000000000000000000000000600052603160045260246000fd5b600061398a82612ab4565b91507fffffffffffffffffffffffffffffffffffffffffffffffffffffffffffffffff82036139bc576139bb61382a565b5b600182019050919050565b60008190508160005260206000209050919050565b60006020601f8301049050919050565b600082821b905092915050565b600060088302613a297fffffffffffffffffffffffffffffffffffffffffffffffffffffffffffffffff826139ec565b613a3386836139ec565b95508019841693508086168417925050509392505050565b6000819050919050565b6000613a70613a6b613a6684612ab4565b613a4b565b612ab4565b9050919050565b6000819050919050565b613a8a83613a55565b613a9e613a9682613a77565b8484546139f9565b825550505050565b600090565b613ab3613aa6565b613abe818484613a81565b505050565b5b81811015613ae257613ad7600082613aab565b600181019050613ac4565b5050565b601f821115613b2757613af8816139c7565b613b01846139dc565b81016020851015613b10578190505b613b24613b1c856139dc565b830182613ac3565b50505b505050565b600082821c905092915050565b6000613b4a60001984600802613b2c565b1980831691505092915050565b6000613b638383613b39565b9150826002028217905092915050565b613b7c82612b41565b67ffffffffffffffff811115613b9557613b94612c88565b5b613b9f82546138bc565b613baa828285613ae6565b600060209050601f831160018114613bdd5760008415613bcb578287015190505b613bd58582613b57565b865550613c3d565b601f198416613beb866139c7565b60005b82811015613c1357848901518255600182019150602085019450602081019050613bee565b86831015613c305784890151613c2c601f891682613b39565b8355505b6001600288020188555050505b50505050505056fea264697066735822122089f6ce8dfb177d6b5fc0a9f958b1ef1fee3ecde4842e5ebfef54b30b411d044064736f6c63430008120033",
  "immutableReferences": {},
  "source": "// SPDX-License-Identifier: MIT\r\npragma solidity >=0.4.21 <0.9.0;\r\n\r\ncontract Election {\r\n    address public admin;\r\n    uint256 candidateCount;\r\n    uint256 voterCount;\r\n    bool start;\r\n    bool end;\r\n\r\n    constructor() {\r\n        admin = msg.sender;\r\n        candidateCount = 0;\r\n        voterCount = 0;\r\n        start = false;\r\n        end = false;\r\n    }\r\n\r\n    function getAdmin() public view returns (address) {\r\n        return admin;\r\n    }\r\n\r\n    modifier onlyAdmin() {\r\n        require(msg.sender == admin);\r\n        _;\r\n    }\r\n\r\n    struct Candidate {\r\n        uint256 candidateId;\r\n        string header;\r\n        string slogan;\r\n        uint256 voteCount;\r\n        string image;\r\n    }\r\n    mapping(uint256 => Candidate) public candidateDetails;\r\n\r\n    function addCandidate(\r\n        string memory _header,\r\n        string memory _slogan,\r\n        string memory _image\r\n    ) public onlyAdmin {\r\n        Candidate memory newCandidate = Candidate({\r\n            candidateId: candidateCount,\r\n            header: _header,\r\n            slogan: _slogan,\r\n            voteCount: 0,\r\n            image: _image\r\n        });\r\n        candidateDetails[candidateCount] = newCandidate;\r\n        candidateCount += 1;\r\n    }\r\n\r\n    struct ElectionDetails {\r\n        string adminName;\r\n        string adminEmail;\r\n        string adminTitle;\r\n        string electionTitle;\r\n        string organizationTitle;\r\n    }\r\n    ElectionDetails electionDetails;\r\n\r\n    function setElectionDetails(\r\n        string memory _adminName,\r\n        string memory _adminEmail,\r\n        string memory _adminTitle,\r\n        string memory _electionTitle,\r\n        string memory _organizationTitle\r\n    )\r\n        public\r\n        // Only admin can add\r\n        onlyAdmin\r\n    {\r\n        electionDetails = ElectionDetails(\r\n            _adminName,\r\n            _adminEmail,\r\n            _adminTitle,\r\n            _electionTitle,\r\n            _organizationTitle\r\n        );\r\n        start = true;\r\n        end = false;\r\n    }\r\n\r\n    function getAllCandidates() public view returns (Candidate[] memory) {\r\n        Candidate[] memory candidates = new Candidate[](candidateCount);\r\n        for (uint256 i = 0; i < candidateCount; i++) {\r\n            candidates[i] = candidateDetails[i];\r\n        }\r\n        return candidates;\r\n    }\r\n\r\n    function getAdminName() public view returns (string memory) {\r\n        return electionDetails.adminName;\r\n    }\r\n\r\n    function getAdminAddress() public view returns (address) {\r\n        return admin;\r\n    }\r\n\r\n    function getAdminEmail() public view returns (string memory) {\r\n        return electionDetails.adminEmail;\r\n    }\r\n\r\n    function getAdminTitle() public view returns (string memory) {\r\n        return electionDetails.adminTitle;\r\n    }\r\n\r\n    function getElectionTitle() public view returns (string memory) {\r\n        return electionDetails.electionTitle;\r\n    }\r\n\r\n    function getOrganizationTitle() public view returns (string memory) {\r\n        return electionDetails.organizationTitle;\r\n    }\r\n\r\n    function getTotalCandidate() public view returns (uint256) {\r\n        return candidateCount;\r\n    }\r\n\r\n    function getTotalVoter() public view returns (uint256) {\r\n        return voterCount;\r\n    }\r\n\r\n    struct Voter {\r\n        address voterAddress;\r\n        string name;\r\n        string email;\r\n        string phone;\r\n        bool isVerified;\r\n        bool hasVoted;\r\n        bool isRegistered;\r\n        string govId;\r\n        string currentImage;\r\n        string voterIdNumber;\r\n    }\r\n    address[] public voters;\r\n    mapping(address => Voter) public voterDetails;\r\n\r\n    function registerAsVoter(\r\n        string memory _name,\r\n        string memory _email,\r\n        string memory _phone,\r\n        string memory _govId,\r\n        string memory _currentImage,\r\n        string memory _voterIdNumber,\r\n        bool _isVerified\r\n    ) public {\r\n        Voter memory newVoter = Voter({\r\n            voterAddress: msg.sender,\r\n            name: _name,\r\n            email: _email,\r\n            phone: _phone,\r\n            hasVoted: false,\r\n            isVerified: _isVerified,\r\n            isRegistered: true,\r\n            govId: _govId,\r\n            currentImage: _currentImage,\r\n            voterIdNumber: _voterIdNumber\r\n        });\r\n        voterDetails[msg.sender] = newVoter;\r\n        voters.push(msg.sender);\r\n        voterCount += 1;\r\n    }\r\n\r\n    function verifyVoter(bool _verifedStatus, address voterAddress)\r\n        public\r\n        onlyAdmin\r\n    {\r\n        voterDetails[voterAddress].isVerified = _verifedStatus;\r\n    }\r\n\r\n    function rejectVoter(address voterAddress) public onlyAdmin {\r\n        for (uint256 i = 0; i < voters.length; i++) {\r\n            if (voters[i] == voterAddress) {\r\n                voters[i] = voters[voters.length - 1];\r\n                voters.pop();\r\n                break;\r\n            }\r\n        }\r\n        voterDetails[voterAddress].isRegistered = false;\r\n        voterCount -= 1;\r\n        delete voterDetails[voterAddress];\r\n    }\r\n\r\n    function vote(uint256 candidateId) public {\r\n        require(voterDetails[msg.sender].hasVoted == false);\r\n        require(voterDetails[msg.sender].isVerified == true);\r\n        require(start == true);\r\n        require(end == false);\r\n        candidateDetails[candidateId].voteCount += 1;\r\n        voterDetails[msg.sender].hasVoted = true;\r\n    }\r\n\r\n    function endElection() public onlyAdmin {\r\n        end = true;\r\n        start = false;\r\n    }\r\n\r\n    function getVoterDetails(address voterAddress)\r\n        public\r\n        view\r\n        returns (Voter memory)\r\n    {\r\n        return voterDetails[voterAddress];\r\n    }\r\n\r\n    function getAllVoters() public view returns (Voter[] memory) {\r\n        Voter[] memory votersList = new Voter[](voterCount);\r\n        for (uint256 i = 0; i < voterCount; i++) {\r\n            votersList[i] = voterDetails[voters[i]];\r\n        }\r\n        return votersList;\r\n    }\r\n\r\n    function getStart() public view returns (bool) {\r\n        return start;\r\n    }\r\n\r\n    function getEnd() public view returns (bool) {\r\n        return end;\r\n    }\r\n\r\n    function getWinner() public view returns (Candidate memory) {\r\n        require(end == true);\r\n        Candidate memory winner = candidateDetails[0];\r\n        for (uint256 i = 1; i < candidateCount; i++) {\r\n            if (candidateDetails[i].voteCount > winner.voteCount) {\r\n                winner = candidateDetails[i];\r\n            }\r\n        }\r\n        return winner;\r\n    }\r\n}\r\n",
  "sourcePath": "C:\\Users\\gkins\\Desktop\\decentralizedVotingUsingBlockchain\\contracts\\Election.sol",
  "compiler": {
    "name": "solc",
    "version": "0.8.18+commit.87f61d96.Emscripten.clang"
  },
  "schemaVersion": "3.4.13",
  "updatedAt": "2023-03-21T02:43:47.883Z",
  "networkType": "ethereum",
  "devdoc": {
    "kind": "dev",
    "methods": {},
    "version": 1
  },
  "userdoc": {
    "kind": "user",
    "methods": {},
    "version": 1
  }
}